{
  "contractName": "NFT",
  "abi": [
    {
      "inputs": [
        {
          "internalType": "string",
          "name": "name",
          "type": "string"
        },
        {
          "internalType": "string",
          "name": "symbol",
          "type": "string"
        }
      ],
      "stateMutability": "nonpayable",
      "type": "constructor"
    },
    {
      "anonymous": false,
      "inputs": [
        {
          "indexed": true,
          "internalType": "address",
          "name": "owner",
          "type": "address"
        },
        {
          "indexed": true,
          "internalType": "address",
          "name": "approved",
          "type": "address"
        },
        {
          "indexed": true,
          "internalType": "uint256",
          "name": "tokenId",
          "type": "uint256"
        }
      ],
      "name": "Approval",
      "type": "event"
    },
    {
      "anonymous": false,
      "inputs": [
        {
          "indexed": true,
          "internalType": "address",
          "name": "owner",
          "type": "address"
        },
        {
          "indexed": true,
          "internalType": "address",
          "name": "operator",
          "type": "address"
        },
        {
          "indexed": false,
          "internalType": "bool",
          "name": "approved",
          "type": "bool"
        }
      ],
      "name": "ApprovalForAll",
      "type": "event"
    },
    {
      "anonymous": false,
      "inputs": [
        {
          "indexed": true,
          "internalType": "address",
          "name": "from",
          "type": "address"
        },
        {
          "indexed": true,
          "internalType": "address",
          "name": "to",
          "type": "address"
        },
        {
          "indexed": true,
          "internalType": "uint256",
          "name": "tokenId",
          "type": "uint256"
        }
      ],
      "name": "Transfer",
      "type": "event"
    },
    {
      "inputs": [
        {
          "internalType": "address",
          "name": "to",
          "type": "address"
        },
        {
          "internalType": "uint256",
          "name": "tokenId",
          "type": "uint256"
        }
      ],
      "name": "approve",
      "outputs": [],
      "stateMutability": "nonpayable",
      "type": "function"
    },
    {
      "inputs": [
        {
          "internalType": "address",
          "name": "owner",
          "type": "address"
        }
      ],
      "name": "balanceOf",
      "outputs": [
        {
          "internalType": "uint256",
          "name": "",
          "type": "uint256"
        }
      ],
      "stateMutability": "view",
      "type": "function"
    },
    {
      "inputs": [
        {
          "internalType": "uint256",
          "name": "tokenId",
          "type": "uint256"
        }
      ],
      "name": "getApproved",
      "outputs": [
        {
          "internalType": "address",
          "name": "",
          "type": "address"
        }
      ],
      "stateMutability": "view",
      "type": "function"
    },
    {
      "inputs": [
        {
          "internalType": "address",
          "name": "owner",
          "type": "address"
        },
        {
          "internalType": "address",
          "name": "operator",
          "type": "address"
        }
      ],
      "name": "isApprovedForAll",
      "outputs": [
        {
          "internalType": "bool",
          "name": "",
          "type": "bool"
        }
      ],
      "stateMutability": "view",
      "type": "function"
    },
    {
      "inputs": [],
      "name": "name",
      "outputs": [
        {
          "internalType": "string",
          "name": "",
          "type": "string"
        }
      ],
      "stateMutability": "view",
      "type": "function"
    },
    {
      "inputs": [
        {
          "internalType": "uint256",
          "name": "tokenId",
          "type": "uint256"
        }
      ],
      "name": "ownerOf",
      "outputs": [
        {
          "internalType": "address",
          "name": "",
          "type": "address"
        }
      ],
      "stateMutability": "view",
      "type": "function"
    },
    {
      "inputs": [
        {
          "internalType": "address",
          "name": "from",
          "type": "address"
        },
        {
          "internalType": "address",
          "name": "to",
          "type": "address"
        },
        {
          "internalType": "uint256",
          "name": "tokenId",
          "type": "uint256"
        }
      ],
      "name": "safeTransferFrom",
      "outputs": [],
      "stateMutability": "nonpayable",
      "type": "function"
    },
    {
      "inputs": [
        {
          "internalType": "address",
          "name": "from",
          "type": "address"
        },
        {
          "internalType": "address",
          "name": "to",
          "type": "address"
        },
        {
          "internalType": "uint256",
          "name": "tokenId",
          "type": "uint256"
        },
        {
          "internalType": "bytes",
          "name": "_data",
          "type": "bytes"
        }
      ],
      "name": "safeTransferFrom",
      "outputs": [],
      "stateMutability": "nonpayable",
      "type": "function"
    },
    {
      "inputs": [
        {
          "internalType": "address",
          "name": "operator",
          "type": "address"
        },
        {
          "internalType": "bool",
          "name": "approved",
          "type": "bool"
        }
      ],
      "name": "setApprovalForAll",
      "outputs": [],
      "stateMutability": "nonpayable",
      "type": "function"
    },
    {
      "inputs": [],
      "name": "symbol",
      "outputs": [
        {
          "internalType": "string",
          "name": "",
          "type": "string"
        }
      ],
      "stateMutability": "view",
      "type": "function"
    },
    {
      "inputs": [
        {
          "internalType": "uint256",
          "name": "index",
          "type": "uint256"
        }
      ],
      "name": "tokenByIndex",
      "outputs": [
        {
          "internalType": "uint256",
          "name": "",
          "type": "uint256"
        }
      ],
      "stateMutability": "view",
      "type": "function"
    },
    {
      "inputs": [
        {
          "internalType": "address",
          "name": "owner",
          "type": "address"
        },
        {
          "internalType": "uint256",
          "name": "index",
          "type": "uint256"
        }
      ],
      "name": "tokenOfOwnerByIndex",
      "outputs": [
        {
          "internalType": "uint256",
          "name": "",
          "type": "uint256"
        }
      ],
      "stateMutability": "view",
      "type": "function"
    },
    {
      "inputs": [],
      "name": "totalSupply",
      "outputs": [
        {
          "internalType": "uint256",
          "name": "",
          "type": "uint256"
        }
      ],
      "stateMutability": "view",
      "type": "function"
    },
    {
      "inputs": [
        {
          "internalType": "address",
          "name": "from",
          "type": "address"
        },
        {
          "internalType": "address",
          "name": "to",
          "type": "address"
        },
        {
          "internalType": "uint256",
          "name": "tokenId",
          "type": "uint256"
        }
      ],
      "name": "transferFrom",
      "outputs": [],
      "stateMutability": "nonpayable",
      "type": "function"
    },
    {
      "inputs": [
        {
          "internalType": "bytes4",
          "name": "interfaceId",
          "type": "bytes4"
        }
      ],
      "name": "supportsInterface",
      "outputs": [
        {
          "internalType": "bool",
          "name": "",
          "type": "bool"
        }
      ],
      "stateMutability": "view",
      "type": "function"
    },
    {
      "inputs": [
        {
          "internalType": "uint256",
          "name": "tokenId",
          "type": "uint256"
        }
      ],
      "name": "tokenURI",
      "outputs": [
        {
          "internalType": "string",
          "name": "",
          "type": "string"
        }
      ],
      "stateMutability": "view",
      "type": "function"
    },
    {
      "inputs": [
        {
          "internalType": "address",
          "name": "owner",
          "type": "address"
        },
        {
          "internalType": "uint256",
          "name": "tokenId",
          "type": "uint256"
        },
        {
          "internalType": "string",
          "name": "metadata",
          "type": "string"
        }
      ],
      "name": "mint",
      "outputs": [
        {
          "internalType": "uint256",
          "name": "",
          "type": "uint256"
        }
      ],
      "stateMutability": "nonpayable",
      "type": "function"
    }
  ],
  "bytecode": "0x60806040523480156200001157600080fd5b5060405162003ad338038062003ad38339818101604052810190620000379190620001fa565b818181600090816200004a9190620004ca565b5080600190816200005c9190620004ca565b5050505050620005b1565b6000604051905090565b600080fd5b600080fd5b600080fd5b600080fd5b6000601f19601f8301169050919050565b7f4e487b7100000000000000000000000000000000000000000000000000000000600052604160045260246000fd5b620000d08262000085565b810181811067ffffffffffffffff82111715620000f257620000f162000096565b5b80604052505050565b60006200010762000067565b9050620001158282620000c5565b919050565b600067ffffffffffffffff82111562000138576200013762000096565b5b620001438262000085565b9050602081019050919050565b60005b838110156200017057808201518184015260208101905062000153565b60008484015250505050565b6000620001936200018d846200011a565b620000fb565b905082815260208101848484011115620001b257620001b162000080565b5b620001bf84828562000150565b509392505050565b600082601f830112620001df57620001de6200007b565b5b8151620001f18482602086016200017c565b91505092915050565b6000806040838503121562000214576200021362000071565b5b600083015167ffffffffffffffff81111562000235576200023462000076565b5b6200024385828601620001c7565b925050602083015167ffffffffffffffff81111562000267576200026662000076565b5b6200027585828601620001c7565b9150509250929050565b600081519050919050565b7f4e487b7100000000000000000000000000000000000000000000000000000000600052602260045260246000fd5b60006002820490506001821680620002d257607f821691505b602082108103620002e857620002e76200028a565b5b50919050565b60008190508160005260206000209050919050565b60006020601f8301049050919050565b600082821b905092915050565b600060088302620003527fffffffffffffffffffffffffffffffffffffffffffffffffffffffffffffffff8262000313565b6200035e868362000313565b95508019841693508086168417925050509392505050565b6000819050919050565b6000819050919050565b6000620003ab620003a56200039f8462000376565b62000380565b62000376565b9050919050565b6000819050919050565b620003c7836200038a565b620003df620003d682620003b2565b84845462000320565b825550505050565b600090565b620003f6620003e7565b62000403818484620003bc565b505050565b5b818110156200042b576200041f600082620003ec565b60018101905062000409565b5050565b601f8211156200047a576200044481620002ee565b6200044f8462000303565b810160208510156200045f578190505b620004776200046e8562000303565b83018262000408565b50505b505050565b600082821c905092915050565b60006200049f600019846008026200047f565b1980831691505092915050565b6000620004ba83836200048c565b9150826002028217905092915050565b620004d5826200027f565b67ffffffffffffffff811115620004f157620004f062000096565b5b620004fd8254620002b9565b6200050a8282856200042f565b600060209050601f8311600181146200054257600084156200052d578287015190505b620005398582620004ac565b865550620005a9565b601f1984166200055286620002ee565b60005b828110156200057c5784890151825560018201915060208501945060208101905062000555565b868310156200059c578489015162000598601f8916826200048c565b8355505b6001600288020188555050505b505050505050565b61351280620005c16000396000f3fe608060405234801561001057600080fd5b506004361061010b5760003560e01c80634f6ccce7116100a2578063a22cb46511610071578063a22cb465146102de578063b88d4fde146102fa578063c87b56dd14610316578063d3fc986414610346578063e985e9c5146103765761010b565b80634f6ccce7146102305780636352211e1461026057806370a082311461029057806395d89b41146102c05761010b565b806318160ddd116100de57806318160ddd146101aa57806323b872dd146101c85780632f745c59146101e457806342842e0e146102145761010b565b806301ffc9a71461011057806306fdde0314610140578063081812fc1461015e578063095ea7b31461018e575b600080fd5b61012a60048036038101906101259190611ebd565b6103a6565b6040516101379190611f05565b60405180910390f35b6101486103b8565b6040516101559190611fb0565b60405180910390f35b61017860048036038101906101739190612008565b61044a565b6040516101859190612076565b60405180910390f35b6101a860048036038101906101a391906120bd565b6104cf565b005b6101b26105e6565b6040516101bf919061210c565b60405180910390f35b6101e260048036038101906101dd9190612127565b6105f3565b005b6101fe60048036038101906101f991906120bd565b610653565b60405161020b919061210c565b60405180910390f35b61022e60048036038101906102299190612127565b6106f8565b005b61024a60048036038101906102459190612008565b610718565b604051610257919061210c565b60405180910390f35b61027a60048036038101906102759190612008565b610789565b6040516102879190612076565b60405180910390f35b6102aa60048036038101906102a5919061217a565b61083a565b6040516102b7919061210c565b60405180910390f35b6102c86108f1565b6040516102d59190611fb0565b60405180910390f35b6102f860048036038101906102f391906121d3565b610983565b005b610314600480360381019061030f9190612348565b610999565b005b610330600480360381019061032b9190612008565b6109fb565b60405161033d9190611fb0565b60405180910390f35b610360600480360381019061035b919061246c565b610a0d565b60405161036d919061210c565b60405180910390f35b610390600480360381019061038b91906124db565b610a2d565b60405161039d9190611f05565b60405180910390f35b60006103b182610ac1565b9050919050565b6060600080546103c79061254a565b80601f01602080910402602001604051908101604052809291908181526020018280546103f39061254a565b80156104405780601f1061041557610100808354040283529160200191610440565b820191906000526020600020905b81548152906001019060200180831161042357829003601f168201915b5050505050905090565b600061045582610b3b565b610494576040517f08c379a000000000000000000000000000000000000000000000000000000000815260040161048b906125ed565b60405180910390fd5b6004600083815260200190815260200160002060009054906101000a900473ffffffffffffffffffffffffffffffffffffffff169050919050565b60006104da82610789565b90508073ffffffffffffffffffffffffffffffffffffffff168373ffffffffffffffffffffffffffffffffffffffff160361054a576040517f08c379a00000000000000000000000000000000000000000000000000000000081526004016105419061267f565b60405180910390fd5b8073ffffffffffffffffffffffffffffffffffffffff16610569610ba7565b73ffffffffffffffffffffffffffffffffffffffff161480610598575061059781610592610ba7565b610a2d565b5b6105d7576040517f08c379a00000000000000000000000000000000000000000000000000000000081526004016105ce90612711565b60405180910390fd5b6105e18383610baf565b505050565b6000600880549050905090565b6106046105fe610ba7565b82610c68565b610643576040517f08c379a000000000000000000000000000000000000000000000000000000000815260040161063a906127a3565b60405180910390fd5b61064e838383610d46565b505050565b600061065e8361083a565b821061069f576040517f08c379a000000000000000000000000000000000000000000000000000000000815260040161069690612835565b60405180910390fd5b600660008473ffffffffffffffffffffffffffffffffffffffff1673ffffffffffffffffffffffffffffffffffffffff168152602001908152602001600020600083815260200190815260200160002054905092915050565b61071383838360405180602001604052806000815250610999565b505050565b60006107226105e6565b8210610763576040517f08c379a000000000000000000000000000000000000000000000000000000000815260040161075a906128c7565b60405180910390fd5b60088281548110610777576107766128e7565b5b90600052602060002001549050919050565b6000806002600084815260200190815260200160002060009054906101000a900473ffffffffffffffffffffffffffffffffffffffff169050600073ffffffffffffffffffffffffffffffffffffffff168173ffffffffffffffffffffffffffffffffffffffff1603610831576040517f08c379a000000000000000000000000000000000000000000000000000000000815260040161082890612988565b60405180910390fd5b80915050919050565b60008073ffffffffffffffffffffffffffffffffffffffff168273ffffffffffffffffffffffffffffffffffffffff16036108aa576040517f08c379a00000000000000000000000000000000000000000000000000000000081526004016108a190612a1a565b60405180910390fd5b600360008373ffffffffffffffffffffffffffffffffffffffff1673ffffffffffffffffffffffffffffffffffffffff168152602001908152602001600020549050919050565b6060600180546109009061254a565b80601f016020809104026020016040519081016040528092919081815260200182805461092c9061254a565b80156109795780601f1061094e57610100808354040283529160200191610979565b820191906000526020600020905b81548152906001019060200180831161095c57829003601f168201915b5050505050905090565b61099561098e610ba7565b8383610fac565b5050565b6109aa6109a4610ba7565b83610c68565b6109e9576040517f08c379a00000000000000000000000000000000000000000000000000000000081526004016109e0906127a3565b60405180910390fd5b6109f584848484611118565b50505050565b6060610a0682611174565b9050919050565b6000610a1984846112c5565b610a23838361149e565b8290509392505050565b6000600560008473ffffffffffffffffffffffffffffffffffffffff1673ffffffffffffffffffffffffffffffffffffffff16815260200190815260200160002060008373ffffffffffffffffffffffffffffffffffffffff1673ffffffffffffffffffffffffffffffffffffffff16815260200190815260200160002060009054906101000a900460ff16905092915050565b60007f780e9d63000000000000000000000000000000000000000000000000000000007bffffffffffffffffffffffffffffffffffffffffffffffffffffffff1916827bffffffffffffffffffffffffffffffffffffffffffffffffffffffff19161480610b345750610b338261150b565b5b9050919050565b60008073ffffffffffffffffffffffffffffffffffffffff166002600084815260200190815260200160002060009054906101000a900473ffffffffffffffffffffffffffffffffffffffff1673ffffffffffffffffffffffffffffffffffffffff1614159050919050565b600033905090565b816004600083815260200190815260200160002060006101000a81548173ffffffffffffffffffffffffffffffffffffffff021916908373ffffffffffffffffffffffffffffffffffffffff160217905550808273ffffffffffffffffffffffffffffffffffffffff16610c2283610789565b73ffffffffffffffffffffffffffffffffffffffff167f8c5be1e5ebec7d5bd14f71427d1e84f3dd0314c0f7b2291e5b200ac8c7c3b92560405160405180910390a45050565b6000610c7382610b3b565b610cb2576040517f08c379a0000000000000000000000000000000000000000000000000000000008152600401610ca990612aac565b60405180910390fd5b6000610cbd83610789565b90508073ffffffffffffffffffffffffffffffffffffffff168473ffffffffffffffffffffffffffffffffffffffff161480610cff5750610cfe8185610a2d565b5b80610d3d57508373ffffffffffffffffffffffffffffffffffffffff16610d258461044a565b73ffffffffffffffffffffffffffffffffffffffff16145b91505092915050565b8273ffffffffffffffffffffffffffffffffffffffff16610d6682610789565b73ffffffffffffffffffffffffffffffffffffffff1614610dbc576040517f08c379a0000000000000000000000000000000000000000000000000000000008152600401610db390612b3e565b60405180910390fd5b600073ffffffffffffffffffffffffffffffffffffffff168273ffffffffffffffffffffffffffffffffffffffff1603610e2b576040517f08c379a0000000000000000000000000000000000000000000000000000000008152600401610e2290612bd0565b60405180910390fd5b610e368383836115ed565b610e41600082610baf565b6001600360008573ffffffffffffffffffffffffffffffffffffffff1673ffffffffffffffffffffffffffffffffffffffff1681526020019081526020016000206000828254610e919190612c1f565b925050819055506001600360008473ffffffffffffffffffffffffffffffffffffffff1673ffffffffffffffffffffffffffffffffffffffff1681526020019081526020016000206000828254610ee89190612c53565b92505081905550816002600083815260200190815260200160002060006101000a81548173ffffffffffffffffffffffffffffffffffffffff021916908373ffffffffffffffffffffffffffffffffffffffff160217905550808273ffffffffffffffffffffffffffffffffffffffff168473ffffffffffffffffffffffffffffffffffffffff167fddf252ad1be2c89b69c2b068fc378daa952ba7f163c4a11628f55a4df523b3ef60405160405180910390a4610fa78383836115fd565b505050565b8173ffffffffffffffffffffffffffffffffffffffff168373ffffffffffffffffffffffffffffffffffffffff160361101a576040517f08c379a000000000000000000000000000000000000000000000000000000000815260040161101190612cd3565b60405180910390fd5b80600560008573ffffffffffffffffffffffffffffffffffffffff1673ffffffffffffffffffffffffffffffffffffffff16815260200190815260200160002060008473ffffffffffffffffffffffffffffffffffffffff1673ffffffffffffffffffffffffffffffffffffffff16815260200190815260200160002060006101000a81548160ff0219169083151502179055508173ffffffffffffffffffffffffffffffffffffffff168373ffffffffffffffffffffffffffffffffffffffff167f17307eab39ab6107e8899845ad3d59bd9653f200f220920489ca2b5937696c318360405161110b9190611f05565b60405180910390a3505050565b611123848484610d46565b61112f84848484611602565b61116e576040517f08c379a000000000000000000000000000000000000000000000000000000000815260040161116590612d65565b60405180910390fd5b50505050565b606061117f82610b3b565b6111be576040517f08c379a00000000000000000000000000000000000000000000000000000000081526004016111b590612df7565b60405180910390fd5b6000600a600084815260200190815260200160002080546111de9061254a565b80601f016020809104026020016040519081016040528092919081815260200182805461120a9061254a565b80156112575780601f1061122c57610100808354040283529160200191611257565b820191906000526020600020905b81548152906001019060200180831161123a57829003601f168201915b505050505090506000611268611789565b9050600081510361127d5781925050506112c0565b6000825111156112b257808260405160200161129a929190612e53565b604051602081830303815290604052925050506112c0565b6112bb846117a0565b925050505b919050565b600073ffffffffffffffffffffffffffffffffffffffff168273ffffffffffffffffffffffffffffffffffffffff1603611334576040517f08c379a000000000000000000000000000000000000000000000000000000000815260040161132b90612ec3565b60405180910390fd5b61133d81610b3b565b1561137d576040517f08c379a000000000000000000000000000000000000000000000000000000000815260040161137490612f2f565b60405180910390fd5b611389600083836115ed565b6001600360008473ffffffffffffffffffffffffffffffffffffffff1673ffffffffffffffffffffffffffffffffffffffff16815260200190815260200160002060008282546113d99190612c53565b92505081905550816002600083815260200190815260200160002060006101000a81548173ffffffffffffffffffffffffffffffffffffffff021916908373ffffffffffffffffffffffffffffffffffffffff160217905550808273ffffffffffffffffffffffffffffffffffffffff16600073ffffffffffffffffffffffffffffffffffffffff167fddf252ad1be2c89b69c2b068fc378daa952ba7f163c4a11628f55a4df523b3ef60405160405180910390a461149a600083836115fd565b5050565b6114a782610b3b565b6114e6576040517f08c379a00000000000000000000000000000000000000000000000000000000081526004016114dd90612fc1565b60405180910390fd5b80600a60008481526020019081526020016000209081611506919061318d565b505050565b60007f80ac58cd000000000000000000000000000000000000000000000000000000007bffffffffffffffffffffffffffffffffffffffffffffffffffffffff1916827bffffffffffffffffffffffffffffffffffffffffffffffffffffffff191614806115d657507f5b5e139f000000000000000000000000000000000000000000000000000000007bffffffffffffffffffffffffffffffffffffffffffffffffffffffff1916827bffffffffffffffffffffffffffffffffffffffffffffffffffffffff1916145b806115e657506115e582611847565b5b9050919050565b6115f88383836118b1565b505050565b505050565b60006116238473ffffffffffffffffffffffffffffffffffffffff166119c3565b1561177c578373ffffffffffffffffffffffffffffffffffffffff1663150b7a0261164c610ba7565b8786866040518563ffffffff1660e01b815260040161166e94939291906132b4565b6020604051808303816000875af19250505080156116aa57506040513d601f19601f820116820180604052508101906116a79190613315565b60015b61172c573d80600081146116da576040519150601f19603f3d011682016040523d82523d6000602084013e6116df565b606091505b506000815103611724576040517f08c379a000000000000000000000000000000000000000000000000000000000815260040161171b90612d65565b60405180910390fd5b805181602001fd5b63150b7a0260e01b7bffffffffffffffffffffffffffffffffffffffffffffffffffffffff1916817bffffffffffffffffffffffffffffffffffffffffffffffffffffffff191614915050611781565b600190505b949350505050565b606060405180602001604052806000815250905090565b60606117ab82610b3b565b6117ea576040517f08c379a00000000000000000000000000000000000000000000000000000000081526004016117e1906133b4565b60405180910390fd5b60006117f4611789565b90506000815111611814576040518060200160405280600081525061183f565b8061181e846119e6565b60405160200161182f929190612e53565b6040516020818303038152906040525b915050919050565b60007f01ffc9a7000000000000000000000000000000000000000000000000000000007bffffffffffffffffffffffffffffffffffffffffffffffffffffffff1916827bffffffffffffffffffffffffffffffffffffffffffffffffffffffff1916149050919050565b6118bc838383611b46565b600073ffffffffffffffffffffffffffffffffffffffff168373ffffffffffffffffffffffffffffffffffffffff16036118fe576118f981611b4b565b61193d565b8173ffffffffffffffffffffffffffffffffffffffff168373ffffffffffffffffffffffffffffffffffffffff161461193c5761193b8382611b94565b5b5b600073ffffffffffffffffffffffffffffffffffffffff168273ffffffffffffffffffffffffffffffffffffffff160361197f5761197a81611d01565b6119be565b8273ffffffffffffffffffffffffffffffffffffffff168273ffffffffffffffffffffffffffffffffffffffff16146119bd576119bc8282611dd2565b5b5b505050565b6000808273ffffffffffffffffffffffffffffffffffffffff163b119050919050565b606060008203611a2d576040518060400160405280600181526020017f30000000000000000000000000000000000000000000000000000000000000008152509050611b41565b600082905060005b60008214611a5f578080611a48906133d4565b915050600a82611a58919061344b565b9150611a35565b60008167ffffffffffffffff811115611a7b57611a7a61221d565b5b6040519080825280601f01601f191660200182016040528015611aad5781602001600182028036833780820191505090505b5090505b60008514611b3a57600182611ac69190612c1f565b9150600a85611ad5919061347c565b6030611ae19190612c53565b60f81b818381518110611af757611af66128e7565b5b60200101907effffffffffffffffffffffffffffffffffffffffffffffffffffffffffffff1916908160001a905350600a85611b33919061344b565b9450611ab1565b8093505050505b919050565b505050565b6008805490506009600083815260200190815260200160002081905550600881908060018154018082558091505060019003906000526020600020016000909190919091505550565b60006001611ba18461083a565b611bab9190612c1f565b9050600060076000848152602001908152602001600020549050818114611c90576000600660008673ffffffffffffffffffffffffffffffffffffffff1673ffffffffffffffffffffffffffffffffffffffff168152602001908152602001600020600084815260200190815260200160002054905080600660008773ffffffffffffffffffffffffffffffffffffffff1673ffffffffffffffffffffffffffffffffffffffff168152602001908152602001600020600084815260200190815260200160002081905550816007600083815260200190815260200160002081905550505b6007600084815260200190815260200160002060009055600660008573ffffffffffffffffffffffffffffffffffffffff1673ffffffffffffffffffffffffffffffffffffffff16815260200190815260200160002060008381526020019081526020016000206000905550505050565b60006001600880549050611d159190612c1f565b9050600060096000848152602001908152602001600020549050600060088381548110611d4557611d446128e7565b5b906000526020600020015490508060088381548110611d6757611d666128e7565b5b906000526020600020018190555081600960008381526020019081526020016000208190555060096000858152602001908152602001600020600090556008805480611db657611db56134ad565b5b6001900381819060005260206000200160009055905550505050565b6000611ddd8361083a565b905081600660008573ffffffffffffffffffffffffffffffffffffffff1673ffffffffffffffffffffffffffffffffffffffff168152602001908152602001600020600083815260200190815260200160002081905550806007600084815260200190815260200160002081905550505050565b6000604051905090565b600080fd5b600080fd5b60007fffffffff0000000000000000000000000000000000000000000000000000000082169050919050565b611e9a81611e65565b8114611ea557600080fd5b50565b600081359050611eb781611e91565b92915050565b600060208284031215611ed357611ed2611e5b565b5b6000611ee184828501611ea8565b91505092915050565b60008115159050919050565b611eff81611eea565b82525050565b6000602082019050611f1a6000830184611ef6565b92915050565b600081519050919050565b600082825260208201905092915050565b60005b83811015611f5a578082015181840152602081019050611f3f565b60008484015250505050565b6000601f19601f8301169050919050565b6000611f8282611f20565b611f8c8185611f2b565b9350611f9c818560208601611f3c565b611fa581611f66565b840191505092915050565b60006020820190508181036000830152611fca8184611f77565b905092915050565b6000819050919050565b611fe581611fd2565b8114611ff057600080fd5b50565b60008135905061200281611fdc565b92915050565b60006020828403121561201e5761201d611e5b565b5b600061202c84828501611ff3565b91505092915050565b600073ffffffffffffffffffffffffffffffffffffffff82169050919050565b600061206082612035565b9050919050565b61207081612055565b82525050565b600060208201905061208b6000830184612067565b92915050565b61209a81612055565b81146120a557600080fd5b50565b6000813590506120b781612091565b92915050565b600080604083850312156120d4576120d3611e5b565b5b60006120e2858286016120a8565b92505060206120f385828601611ff3565b9150509250929050565b61210681611fd2565b82525050565b600060208201905061212160008301846120fd565b92915050565b6000806000606084860312156121405761213f611e5b565b5b600061214e868287016120a8565b935050602061215f868287016120a8565b925050604061217086828701611ff3565b9150509250925092565b6000602082840312156121905761218f611e5b565b5b600061219e848285016120a8565b91505092915050565b6121b081611eea565b81146121bb57600080fd5b50565b6000813590506121cd816121a7565b92915050565b600080604083850312156121ea576121e9611e5b565b5b60006121f8858286016120a8565b9250506020612209858286016121be565b9150509250929050565b600080fd5b600080fd5b7f4e487b7100000000000000000000000000000000000000000000000000000000600052604160045260246000fd5b61225582611f66565b810181811067ffffffffffffffff821117156122745761227361221d565b5b80604052505050565b6000612287611e51565b9050612293828261224c565b919050565b600067ffffffffffffffff8211156122b3576122b261221d565b5b6122bc82611f66565b9050602081019050919050565b82818337600083830152505050565b60006122eb6122e684612298565b61227d565b90508281526020810184848401111561230757612306612218565b5b6123128482856122c9565b509392505050565b600082601f83011261232f5761232e612213565b5b813561233f8482602086016122d8565b91505092915050565b6000806000806080858703121561236257612361611e5b565b5b6000612370878288016120a8565b9450506020612381878288016120a8565b935050604061239287828801611ff3565b925050606085013567ffffffffffffffff8111156123b3576123b2611e60565b5b6123bf8782880161231a565b91505092959194509250565b600067ffffffffffffffff8211156123e6576123e561221d565b5b6123ef82611f66565b9050602081019050919050565b600061240f61240a846123cb565b61227d565b90508281526020810184848401111561242b5761242a612218565b5b6124368482856122c9565b509392505050565b600082601f83011261245357612452612213565b5b81356124638482602086016123fc565b91505092915050565b60008060006060848603121561248557612484611e5b565b5b6000612493868287016120a8565b93505060206124a486828701611ff3565b925050604084013567ffffffffffffffff8111156124c5576124c4611e60565b5b6124d18682870161243e565b9150509250925092565b600080604083850312156124f2576124f1611e5b565b5b6000612500858286016120a8565b9250506020612511858286016120a8565b9150509250929050565b7f4e487b7100000000000000000000000000000000000000000000000000000000600052602260045260246000fd5b6000600282049050600182168061256257607f821691505b6020821081036125755761257461251b565b5b50919050565b7f4552433732313a20617070726f76656420717565727920666f72206e6f6e657860008201527f697374656e7420746f6b656e0000000000000000000000000000000000000000602082015250565b60006125d7602c83611f2b565b91506125e28261257b565b604082019050919050565b60006020820190508181036000830152612606816125ca565b9050919050565b7f4552433732313a20617070726f76616c20746f2063757272656e74206f776e6560008201527f7200000000000000000000000000000000000000000000000000000000000000602082015250565b6000612669602183611f2b565b91506126748261260d565b604082019050919050565b600060208201905081810360008301526126988161265c565b9050919050565b7f4552433732313a20617070726f76652063616c6c6572206973206e6f74206f7760008201527f6e6572206e6f7220617070726f76656420666f7220616c6c0000000000000000602082015250565b60006126fb603883611f2b565b91506127068261269f565b604082019050919050565b6000602082019050818103600083015261272a816126ee565b9050919050565b7f4552433732313a207472616e736665722063616c6c6572206973206e6f74206f60008201527f776e6572206e6f7220617070726f766564000000000000000000000000000000602082015250565b600061278d603183611f2b565b915061279882612731565b604082019050919050565b600060208201905081810360008301526127bc81612780565b9050919050565b7f455243373231456e756d657261626c653a206f776e657220696e646578206f7560008201527f74206f6620626f756e6473000000000000000000000000000000000000000000602082015250565b600061281f602b83611f2b565b915061282a826127c3565b604082019050919050565b6000602082019050818103600083015261284e81612812565b9050919050565b7f455243373231456e756d657261626c653a20676c6f62616c20696e646578206f60008201527f7574206f6620626f756e64730000000000000000000000000000000000000000602082015250565b60006128b1602c83611f2b565b91506128bc82612855565b604082019050919050565b600060208201905081810360008301526128e0816128a4565b9050919050565b7f4e487b7100000000000000000000000000000000000000000000000000000000600052603260045260246000fd5b7f4552433732313a206f776e657220717565727920666f72206e6f6e657869737460008201527f656e7420746f6b656e0000000000000000000000000000000000000000000000602082015250565b6000612972602983611f2b565b915061297d82612916565b604082019050919050565b600060208201905081810360008301526129a181612965565b9050919050565b7f4552433732313a2062616c616e636520717565727920666f7220746865207a6560008201527f726f206164647265737300000000000000000000000000000000000000000000602082015250565b6000612a04602a83611f2b565b9150612a0f826129a8565b604082019050919050565b60006020820190508181036000830152612a33816129f7565b9050919050565b7f4552433732313a206f70657261746f7220717565727920666f72206e6f6e657860008201527f697374656e7420746f6b656e0000000000000000000000000000000000000000602082015250565b6000612a96602c83611f2b565b9150612aa182612a3a565b604082019050919050565b60006020820190508181036000830152612ac581612a89565b9050919050565b7f4552433732313a207472616e736665722066726f6d20696e636f72726563742060008201527f6f776e6572000000000000000000000000000000000000000000000000000000602082015250565b6000612b28602583611f2b565b9150612b3382612acc565b604082019050919050565b60006020820190508181036000830152612b5781612b1b565b9050919050565b7f4552433732313a207472616e7366657220746f20746865207a65726f2061646460008201527f7265737300000000000000000000000000000000000000000000000000000000602082015250565b6000612bba602483611f2b565b9150612bc582612b5e565b604082019050919050565b60006020820190508181036000830152612be981612bad565b9050919050565b7f4e487b7100000000000000000000000000000000000000000000000000000000600052601160045260246000fd5b6000612c2a82611fd2565b9150612c3583611fd2565b9250828203905081811115612c4d57612c4c612bf0565b5b92915050565b6000612c5e82611fd2565b9150612c6983611fd2565b9250828201905080821115612c8157612c80612bf0565b5b92915050565b7f4552433732313a20617070726f766520746f2063616c6c657200000000000000600082015250565b6000612cbd601983611f2b565b9150612cc882612c87565b602082019050919050565b60006020820190508181036000830152612cec81612cb0565b9050919050565b7f4552433732313a207472616e7366657220746f206e6f6e20455243373231526560008201527f63656976657220696d706c656d656e7465720000000000000000000000000000602082015250565b6000612d4f603283611f2b565b9150612d5a82612cf3565b604082019050919050565b60006020820190508181036000830152612d7e81612d42565b9050919050565b7f45524337323155524953746f726167653a2055524920717565727920666f722060008201527f6e6f6e6578697374656e7420746f6b656e000000000000000000000000000000602082015250565b6000612de1603183611f2b565b9150612dec82612d85565b604082019050919050565b60006020820190508181036000830152612e1081612dd4565b9050919050565b600081905092915050565b6000612e2d82611f20565b612e378185612e17565b9350612e47818560208601611f3c565b80840191505092915050565b6000612e5f8285612e22565b9150612e6b8284612e22565b91508190509392505050565b7f4552433732313a206d696e7420746f20746865207a65726f2061646472657373600082015250565b6000612ead602083611f2b565b9150612eb882612e77565b602082019050919050565b60006020820190508181036000830152612edc81612ea0565b9050919050565b7f4552433732313a20746f6b656e20616c7265616479206d696e74656400000000600082015250565b6000612f19601c83611f2b565b9150612f2482612ee3565b602082019050919050565b60006020820190508181036000830152612f4881612f0c565b9050919050565b7f45524337323155524953746f726167653a2055524920736574206f66206e6f6e60008201527f6578697374656e7420746f6b656e000000000000000000000000000000000000602082015250565b6000612fab602e83611f2b565b9150612fb682612f4f565b604082019050919050565b60006020820190508181036000830152612fda81612f9e565b9050919050565b60008190508160005260206000209050919050565b60006020601f8301049050919050565b600082821b905092915050565b6000600883026130437fffffffffffffffffffffffffffffffffffffffffffffffffffffffffffffffff82613006565b61304d8683613006565b95508019841693508086168417925050509392505050565b6000819050919050565b600061308a61308561308084611fd2565b613065565b611fd2565b9050919050565b6000819050919050565b6130a48361306f565b6130b86130b082613091565b848454613013565b825550505050565b600090565b6130cd6130c0565b6130d881848461309b565b505050565b5b818110156130fc576130f16000826130c5565b6001810190506130de565b5050565b601f8211156131415761311281612fe1565b61311b84612ff6565b8101602085101561312a578190505b61313e61313685612ff6565b8301826130dd565b50505b505050565b600082821c905092915050565b600061316460001984600802613146565b1980831691505092915050565b600061317d8383613153565b9150826002028217905092915050565b61319682611f20565b67ffffffffffffffff8111156131af576131ae61221d565b5b6131b9825461254a565b6131c4828285613100565b600060209050601f8311600181146131f757600084156131e5578287015190505b6131ef8582613171565b865550613257565b601f19841661320586612fe1565b60005b8281101561322d57848901518255600182019150602085019450602081019050613208565b8683101561324a5784890151613246601f891682613153565b8355505b6001600288020188555050505b505050505050565b600081519050919050565b600082825260208201905092915050565b60006132868261325f565b613290818561326a565b93506132a0818560208601611f3c565b6132a981611f66565b840191505092915050565b60006080820190506132c96000830187612067565b6132d66020830186612067565b6132e360408301856120fd565b81810360608301526132f5818461327b565b905095945050505050565b60008151905061330f81611e91565b92915050565b60006020828403121561332b5761332a611e5b565b5b600061333984828501613300565b91505092915050565b7f4552433732314d657461646174613a2055524920717565727920666f72206e6f60008201527f6e6578697374656e7420746f6b656e0000000000000000000000000000000000602082015250565b600061339e602f83611f2b565b91506133a982613342565b604082019050919050565b600060208201905081810360008301526133cd81613391565b9050919050565b60006133df82611fd2565b91507fffffffffffffffffffffffffffffffffffffffffffffffffffffffffffffffff820361341157613410612bf0565b5b600182019050919050565b7f4e487b7100000000000000000000000000000000000000000000000000000000600052601260045260246000fd5b600061345682611fd2565b915061346183611fd2565b9250826134715761347061341c565b5b828204905092915050565b600061348782611fd2565b915061349283611fd2565b9250826134a2576134a161341c565b5b828206905092915050565b7f4e487b7100000000000000000000000000000000000000000000000000000000600052603160045260246000fdfea2646970667358221220055024525ec5893ab810dbe11c133baa6ae80e35e9e8951101b75343dd0191e864736f6c63430008130033",
  "immutableReferences": {},
  "source": "// SPDX-License-Identifier: MIT\npragma solidity 0.8.19;\n\nimport \"@openzeppelin/contracts/token/ERC721/ERC721.sol\";\nimport \"@openzeppelin/contracts/token/ERC721/extensions/ERC721Enumerable.sol\";\nimport \"@openzeppelin/contracts/token/ERC721/extensions/ERC721URIStorage.sol\";\nimport \"@openzeppelin/contracts/utils/Counters.sol\";\n\ncontract NFT is ERC721, ERC721Enumerable, ERC721URIStorage {\n    using Counters for Counters.Counter;\n    Counters.Counter private _tokenIds;\n\n    constructor(\n        string memory name,\n        string memory symbol\n    ) ERC721(name, symbol) {}\n\n    function supportsInterface(\n        bytes4 interfaceId\n    ) public view override(ERC721, ERC721Enumerable) returns (bool) {\n        return super.supportsInterface(interfaceId);\n    }\n\n    function _beforeTokenTransfer(\n        address from,\n        address to,\n        uint256 tokenId\n    ) internal override(ERC721, ERC721Enumerable) {\n        super._beforeTokenTransfer(from, to, tokenId);\n    }\n\n    function _burn(\n        uint256 tokenId\n    ) internal virtual override(ERC721, ERC721URIStorage) {\n        return super._burn(tokenId);\n    }\n\n    function tokenURI(\n        uint256 tokenId\n    )\n        public\n        view\n        virtual\n        override(ERC721, ERC721URIStorage)\n        returns (string memory)\n    {\n        return super.tokenURI(tokenId);\n    }\n\n    function mint(\n        address owner,\n        uint256 tokenId,\n        string memory metadata\n    ) public returns (uint256) {\n        _mint(owner, tokenId);\n        _setTokenURI(tokenId, metadata);\n\n        return tokenId;\n    }\n}\n",
  "sourcePath": "/app/contracts/NFT.sol",
  "compiler": {
    "name": "solc",
    "version": "0.8.19+commit.7dd6d404.Emscripten.clang"
  },
  "schemaVersion": "3.4.7",
  "updatedAt": "2023-09-24T15:24:05.306Z",
  "devdoc": {
    "events": {
      "Approval(address,address,uint256)": {
        "details": "Emitted when `owner` enables `approved` to manage the `tokenId` token."
      },
      "ApprovalForAll(address,address,bool)": {
        "details": "Emitted when `owner` enables or disables (`approved`) `operator` to manage all of its assets."
      },
      "Transfer(address,address,uint256)": {
        "details": "Emitted when `tokenId` token is transferred from `from` to `to`."
      }
    },
    "kind": "dev",
    "methods": {
      "approve(address,uint256)": {
        "details": "See {IERC721-approve}."
      },
      "balanceOf(address)": {
        "details": "See {IERC721-balanceOf}."
      },
      "getApproved(uint256)": {
        "details": "See {IERC721-getApproved}."
      },
      "isApprovedForAll(address,address)": {
        "details": "See {IERC721-isApprovedForAll}."
      },
      "name()": {
        "details": "See {IERC721Metadata-name}."
      },
      "ownerOf(uint256)": {
        "details": "See {IERC721-ownerOf}."
      },
      "safeTransferFrom(address,address,uint256)": {
        "details": "See {IERC721-safeTransferFrom}."
      },
      "safeTransferFrom(address,address,uint256,bytes)": {
        "details": "See {IERC721-safeTransferFrom}."
      },
      "setApprovalForAll(address,bool)": {
        "details": "See {IERC721-setApprovalForAll}."
      },
      "symbol()": {
        "details": "See {IERC721Metadata-symbol}."
      },
      "tokenByIndex(uint256)": {
        "details": "See {IERC721Enumerable-tokenByIndex}."
      },
      "tokenOfOwnerByIndex(address,uint256)": {
        "details": "See {IERC721Enumerable-tokenOfOwnerByIndex}."
      },
      "totalSupply()": {
        "details": "See {IERC721Enumerable-totalSupply}."
      },
      "transferFrom(address,address,uint256)": {
        "details": "See {IERC721-transferFrom}."
      }
    },
    "version": 1
  },
  "userdoc": {
    "kind": "user",
    "methods": {},
    "version": 1
  }
}